:020000040800F2
:100000000028002019170008951600089B16000804
:10001000A1160008A7160008AD1600080000000091
:10002000000000000000000000000000B3160008FF
:10003000BF16000800000000CB160008D716000805
:1000400061170008611700086117000861170008B0
:1000500061170008611700086117000861170008A0
:100060006117000861170008611700086117000890
:100070006117000861170008611700086117000880
:100080006117000861170008611700086117000870
:100090006117000861170008611700086117000860
:1000A0006117000861170008611700086117000850
:1000B000E5160008F91600080000000061170008A6
:1000C0006117000800000000000000006117000830
:1000D0000000000061170008611700080000000020
:1000E0006117000861170008611700080000000090
:1000F0000000000000000000000000000000000000
:0C01000000000000000000005FF808F1A3
:10010C0010B5054C237833B9044B13B10448AFF345
:10011C0000800123237010BD40000020000000006F
:10012C008C2D000808B5034B1BB103490348AFF3F2
:10013C00008008BD00000000440000208C2D000849
:10014C0080B500AF1F4B1B68212B21D0212B36DC37
:10015C001F2B02D0202B07D031E01A4B20221A6023
:10016C00642001F0EDF92AE0174B1B68012B23D119
:10017C00154B00221A6000224FF48071134801F0D5
:10018C00EEFD104B21221A60642001F0D9F913E026
:10019C000D4B1B68012B11D10B4B00221A60012255
:1001AC004FF48071094801F0DAFD064B20221A60E9
:1001BC00642001F0C5F901E000BF00E000BF00BF02
:1001CC0080BD00BF6C0000200C0100200008014025
:1001DC0080B400AF034B01221A6000BFBD4680BC47
:1001EC00704700BF5C00002080B400AF034B0122BD
:1001FC001A6000BFBD4680BC704700BF6000002085
:10020C0080B400AF034B01221A6000BFBD4680BC16
:10021C00704700BF6400002080B500AF204B1B6806
:10022C00204A1360204B1B681D4A13604FF4005189
:10023C001E4801F07DFD03461A461B4B1A60194BF4
:10024C001A68174B1B689A4228D1154B1A68164B23
:10025C001B689A4222D1164B1A68134B1B689A42A0
:10026C000DD0114B1B68124A13600F4B1B68002BEF
:10027C0014D1FFF7ADFF0F4BC8221A600EE00D4BE7
:10028C001B68013B0B4A13600A4B1B68002B05D102
:10029C00074B01221A60074BC8221A6000BF80BDB1
:1002AC000400002000000020080000200010014085
:1002BC00240000203000002080B500AF234B1B68C9
:1002CC00234A1360234B1B68204A13604FF4804170
:1002DC00214801F02DFD03461A461E4B1A601C4B9B
:1002EC001A681A4B1B689A422DD1184B1A68194B75
:1002FC001B689A4227D1194B1A68164B1B689A42F5
:10030C000ED0144B1B68154A1360124B1B68002B44
:10031C0019D1FFF769FF124B4FF496721A6012E075
:10032C000F4B1B68013B0E4A13600D4B1B68002BD7
:10033C0009D10A4B1B68002B05D10A4B01221A600C
:10034C00074B64221A6000BF80BD00BF1000002064
:10035C000C00002014000020001001402800002098
:10036C00300000206000002080B500AF234B1B68DC
:10037C00234A1360234B1B68204A13604FF400413F
:10038C00214801F0D5FC03461A461E4B1A601C4B43
:10039C001A681A4B1B689A422DD1184B1A68194BC4
:1003AC001B689A4227D1194B1A68164B1B689A4244
:1003BC000ED0144B1B68154A1360124B1B68002B94
:1003CC0019D1FFF71DFF124B4FF496721A6012E011
:1003DC000F4B1B68013B0E4A13600D4B1B68002B27
:1003EC0009D10A4B1B68002B05D10A4B01221A605C
:1003FC00074B64221A6000BF80BD00BF1C000020A8
:10040C001800002020000020001001402C000020CB
:10041C00300000206400002080B582B000AF78600E
:10042C007B68092B00F2808101A252F823F000BFF7
:10043C0065040008AD040008F50400083D0500083B
:10044C0085050008CD050008150600085D060008A6
:10045C00A5060008ED06000800220221B54801F0AF
:10046C007EFC00220421B34801F079FC0022082113
:10047C00B04801F074FC00221021AE4801F06FFC72
:10048C0000222021AB4801F06AFC00224021A9483F
:10049C0001F065FC01228021A64801F060FC44E1DA
:1004AC0001220221A34801F05AFC00220421A14898
:1004BC0001F055FC002208219E4801F050FC01225D
:1004CC0010219C4801F04BFC01222021994801F09D
:1004DC0046FC01224021974801F041FC0122802179
:1004EC00944801F03CFC20E100220221914801F0EB
:1004FC0036FC002204218F4801F031FC0122082136
:10050C008C4801F02CFC002210218A4801F027FCB9
:10051C0000222021874801F022FC0122402185483D
:10052C0001F01DFC00228021824801F018FCFCE047
:10053C00002202217F4801F012FC002204217D4898
:10054C0001F00DFC002208217A4801F008FC002281
:10055C001021784801F003FC01222021754801F09C
:10056C00FEFB01224021734801F0F9FB002280219F
:10057C00704801F0F4FBD8E0012202216D4801F033
:10058C00EEFB002204216B4801F0E9FB002208215C
:10059C00684801F0E4FB01221021664801F0DFFB02
:1005AC0001222021634801F0DAFB0022402161483E
:1005BC0001F0D5FB002280215E4801F0D0FBB4E0B5
:1005CC00002202215B4801F0CAFB01220421594898
:1005DC0001F0C5FB00220821564801F0C0FB0022A7
:1005EC001021544801F0BBFB01222021514801F09D
:1005FC00B6FB002240214F4801F0B1FB00228021C4
:10060C004C4801F0ACFB90E000220221494801F07B
:10061C00A6FB01220421474801F0A1FB002208217E
:10062C00444801F09CFB00221021424801F097FB4A
:10063C00002220213F4801F092FB002240213D483E
:10064C0001F08DFB002280213A4801F088FB6CE020
:10065C0000220221374801F082FB00220421354898
:10066C0001F07DFB00220821324801F078FB0122C9
:10067C001021304801F073FB012220212D4801F09C
:10068C006EFB012240212B4801F069FB01228021E5
:10069C00284801F064FB48E000220221254801F0C3
:1006AC005EFB00220421234801F059FB00220821A3
:1006BC00204801F054FB002210211E4801F04FFB92
:1006CC00002220211B4801F04AFB0022402119483E
:1006DC0001F045FB00228021164801F040FB24E08C
:1006EC0000220221134801F03AFB00220421114898
:1006FC0001F035FB002208210E4801F030FB0022EE
:10070C0010210C4801F02BFB01222021094801F09B
:10071C0026FB00224021074801F021FB002280210A
:10072C00044801F01CFB00E000BF00BF0837BD46C9
:10073C0080BD00BF0008014080B500AF9C4B1B681A
:10074C000A3B182B00F22B8201A252F823F000BFB7
:10075C00DD0700083D0800089D080008FD0800089A
:10076C005D090008D5090008350A0008910A00083F
:10077C00EF0A00084D0B0008AB0B0008AB0B000890
:10078C00AB0B0008AB0B0008AB0B0008AB0B000865
:10079C00AB0B0008AB0B0008AB0B0008AB0B000855
:1007AC00AB0B0008AB0B0008AB0B0008AB0B000845
:1007BC00C10700087F4B1F221A600020FFF72CFE98
:1007CC007B4B00221A604FF47A7000F0A5FEF9E121
:1007DC00794B1B68012B05D1774B00221A60744BA7
:1007EC0022221A600020FFF717FE744B1B68012BA6
:1007FC0008D1724B00221A606D4B0B221A606420D8
:10080C0000F08AFE6E4B1B68012B05D16C4B00224D
:10081C001A60674B01221A606A4B1B68012B40F06F
:10082C00C081684B00221A60614B09221A60B8E142
:10083C00614B1B68012B05D15F4B00221A605C4B8E
:10084C0022221A600120FFF7E7FD5C4B1B68012B8D
:10085C0008D15A4B00221A60554B0B221A606420A7
:10086C0000F05AFE564B1B68012B05D1544B00224D
:10087C001A604F4B02221A60524B1B68012B40F03E
:10088C009281504B00221A60494B00221A608AE177
:10089C00494B1B68012B05D1474B00221A60444B76
:1008AC0022221A600220FFF7B7FD444B1B68012B74
:1008BC0008D1424B00221A603D4B0C221A60642076
:1008CC0000F02AFE3E4B1B68012B05D13C4B00224D
:1008DC001A60374B03221A603A4B1B68012B40F00D
:1008EC006481384B00221A60314B01221A605CE1A2
:1008FC00314B1B68012B05D12F4B00221A602C4B5E
:10090C0022221A600320FFF787FD2C4B1B68012B5A
:10091C0008D12A4B00221A60254B0D221A60642044
:10092C0000F0FAFD264B1B68012B05D1244B00224D
:10093C001A601F4B04221A60224B1B68012B40F0DB
:10094C003681204B00221A60194B02221A602EE1CC
:10095C00194B1B68012B05D1174B00221A60144B45
:10096C0022221A600420FFF757FD144B1B68012B41
:10097C0008D1124B00221A600D4B0E221A60642013
:10098C0000F0CAFD0E4B1B68012B05D10C4B00224D
:10099C001A60074B05221A600A4B1B68012B40F0AA
:1009AC000881084B00221A60014B03221A6000E1F7
:1009BC00680000206C0000205C0000200801002072
:1009CC0060000020640000207F4B1B68012B05D1C8
:1009DC007D4B00221A607D4B22221A600520FFF706
:1009EC001BFD7B4B1B68012B08D1794B00221A6035
:1009FC00764B0F221A60642000F08EFD754B1B683D
:100A0C00012B05D1734B00221A60704B06221A6021
:100A1C00714B1B68012B40F0CE806F4B00221A608B
:100A2C006A4B04221A60C6E0674B1B68012B05D188
:100A3C00654B00221A60654B22221A600620FFF7D4
:100A4C00EBFC634B1B68012B08D1614B00221A6035
:100A5C005E4B10221A60642000F05EFD5D4B1B683B
:100A6C00012B05D15B4B00221A60584B07221A60F0
:100A7C00594B1B68012B05D1574B00221A60534B65
:100A8C0005221A60504B1B68012B05D14E4B0022DE
:100A9C001A604E4B22221A600720FFF7BDFC4C4B0C
:100AAC001B68012B08D14A4B00221A60474B1122BC
:100ABC001A60642000F030FD464B1B68012B05D1F9
:100ACC00444B00221A60414B08221A60424B1B68AF
:100ADC00012B72D1404B00221A603C4B06221A604B
:100AEC006BE0394B1B68012B05D1374B00221A6088
:100AFC00364B22221A600820FFF78EFC344B1B6801
:100B0C00012B08D1324B00221A60304B12221A6092
:100B1C00642000F001FD2F4B1B68012B05D12D4BE0
:100B2C0000221A60294B09221A602B4B1B68012BDF
:100B3C0045D1294B00221A60244B07221A603EE053
:100B4C000920FFF769FC224B1B68012B08D1204BB5
:100B5C0000221A601D4B13221A60642000F0DCFC8A
:100B6C00194B1B68012B05D1174B00221A60174B30
:100B7C0022221A60174B1B68012B05D1154B002242
:100B8C001A60124B00221A60134B1B68012B18D1F0
:100B9C00114B00221A600D4B08221A6011E000BFA5
:100BAC0010E000BF0EE000BF0CE000BF0AE000BF89
:100BBC0008E000BF06E000BF04E000BF02E000BF99
:100BCC0000E000BF00BF80BD5C000020680000207A
:100BDC0008010020600000206400002080B500AFF8
:100BEC00864B1B68143B092B00F2F08001A252F8D3
:100BFC0023F000BF290C00085B0C00088D0C0008CA
:100C0C00BF0C0008F10C0008210D0008510D000864
:100C1C00730D0008950D0008B70D00080020FFF7B4
:100C2C00FBFB774B1B68012B02D1754B00221A6022
:100C3C00744B1B68012B40F0CB80724B00221A6066
:100C4C006E4B15221A60642000F066FCC0E0012097
:100C5C00FFF7E2FB6A4B1B68012B02D1684B0022A9
:100C6C001A60684B1B68012B40F0B480654B002266
:100C7C001A60624B16221A60642000F04DFCA9E049
:100C8C000220FFF7C9FB5E4B1B68012B02D15C4BAA
:100C9C0000221A605B4B1B68012B40F09D80594B66
:100CAC0000221A60554B17221A60642000F034FCA5
:100CBC0092E00320FFF7B0FB514B1B68012B02D1D4
:100CCC004F4B00221A604F4B1B68012B40F0868063
:100CDC004C4B00221A60494B18221A60642000F019
:100CEC001BFC7BE00420FFF797FB454B1B68012B9B
:100CFC0002D1434B00221A60424B1B68012B6FD16F
:100D0C00404B00221A603D4B19221A60642000F0FF
:100D1C0003FC65E00520FFF77FFB394B1B68012BBB
:100D2C0002D1374B00221A60364B1B68012B59D16C
:100D3C00344B00221A60314B1A221A60642000F0E6
:100D4C00EBFB4FE00620FFF767FB2D4B1B68012BDD
:100D5C004AD12B4B00221A60284B1B221A606420AC
:100D6C0000F0DAFB40E00720FFF756FB244B1B6832
:100D7C00012B3BD1224B00221A60204B1C221A6003
:100D8C00642000F0C9FB31E00820FFF745FB1C4B49
:100D9C001B68012B2CD11A4B00221A60174B1D22F9
:100DAC001A60642000F0B8FB22E00920FFF734FB46
:100DBC00134B1B68012B1DD1114B00221A600F4BDA
:100DCC0014221A60642000F0A7FB13E000BF12E0AD
:100DDC0000BF10E000BF0EE000BF0CE000BF0AE057
:100DEC0000BF08E000BF06E000BF04E000BF02E067
:100DFC0000BF00E000BF00BF80BD00BF6800002046
:100E0C00080100206000002080B500AF8A4B1B68F1
:100E1C00092B00F2158201A252F823F0510E0008A2
:100E2C00B50E0008190F00087D0F0008E10F00082F
:100E3C0059100008BD100008211100088511000888
:100E4C00E91100080020FFF7E7FA7C4B1B68012B27
:100E5C0005D17A4B00221A60774B00221A60784B2E
:100E6C001B68012B08D1764B00221A60724B0122B1
:100E7C001A60C82000F050FB724B1B68012B08D184
:100E8C00704B00221A606C4B09221A60C82000F0CB
:100E9C0043FB6D4B1B68012B02D16B4B00221A607C
:100EAC00654B0A221A60CCE10120FFF7B5FA634BBF
:100EBC001B68012B05D1614B00221A605E4B00228E
:100ECC001A605F4B1B68012B08D15D4B00221A6026
:100EDC00594B02221A60C82000F01EFB594B1B68AC
:100EEC00012B08D1574B00221A60534B00221A6079
:100EFC00C82000F011FB544B1B68012B02D1524B44
:100F0C0000221A604C4B0B221A609AE10220FFF768
:100F1C0083FA4A4B1B68012B05D1484B00221A60FF
:100F2C00454B00221A60464B1B68012B08D1444BE1
:100F3C0000221A60404B03221A60C82000F0ECFA21
:100F4C00404B1B68012B08D13E4B00221A603A4BD8
:100F5C0001221A60C82000F0DFFA3B4B1B68012B02
:100F6C0002D1394B00221A60334B0C221A6068E113
:100F7C000320FFF751FA314B1B68012B05D12F4B86
:100F8C0000221A602C4B00221A602D4B1B68012B7F
:100F9C0008D12B4B00221A60274B04221A60C82060
:100FAC0000F0BAFA274B1B68012B08D1254B002205
:100FBC001A60214B02221A60C82000F0ADFA224BB5
:100FCC001B68012B02D1204B00221A601A4B0D22F8
:100FDC001A6036E10420FFF71FFA184B1B68012B2F
:100FEC0005D1164B00221A60134B00221A60144BC9
:100FFC001B68012B08D1124B00221A600E4B0522E4
:10100C001A60C82000F088FA0E4B1B68012B08D11F
:10101C000C4B00221A60084B03221A60C82000F007
:10102C007BFA094B1B68012B02D1074B00221A607B
:10103C00014B0E221A6004E1680000205C000020C5
:10104C006000002064000020080100200520FFF74C
:10105C00E3F97D4B1B68012B05D17B4B00221A60F9
:10106C007A4B00221A607A4B1B68012B08D1784B03
:10107C0000221A60754B06221A60C82000F04CFA48
:10108C00744B1B68012B08D1724B00221A606F4BFA
:10109C0004221A60C82000F03FFA6F4B1B68012B2A
:1010AC0002D16D4B00221A60684B0F221A60C8E007
:1010BC000620FFF7B1F9644B1B68012B05D1624B7D
:1010CC0000221A60614B00221A60614B1B68012BD5
:1010DC0008D15F4B00221A605C4B07221A60C820B3
:1010EC0000F01AFA5B4B1B68012B08D1594B0022FC
:1010FC001A60564B05221A60C82000F00DFA564BA8
:10110C001B68012B02D1544B00221A604F4B10224A
:10111C001A6096E00720FFF77FF94B4B1B68012BF9
:10112C0005D1494B00221A60484B00221A60484BEB
:10113C001B68012B08D1464B00221A60434B082236
:10114C001A60C82000F0E8F9424B1B68012B08D14B
:10115C00404B00221A603D4B06221A60C82000F05A
:10116C00DBF93D4B1B68012B02D13B4B00221A6073
:10117C00364B11221A6064E00820FFF74DF9324B10
:10118C001B68012B05D1304B00221A602F4B00221B
:10119C001A602F4B1B68012B08D12D4B00221A60B3
:1011AC002A4B09221A60C82000F0B6F9294B1B689B
:1011BC00012B08D1274B00221A60244B07221A60FE
:1011CC00C82000F0A9F9244B1B68012B02D1224B3B
:1011DC0000221A601D4B12221A6032E00920FFF720
:1011EC001BF9194B1B68012B05D1174B00221A60F8
:1011FC00164B00221A60164B1B68012B08D1144B9E
:10120C0000221A60114B00221A60C82000F084F9E9
:10121C00104B1B68012B08D10E4B00221A600B4B94
:10122C0008221A60C82000F077F90B4B1B68012BC1
:10123C0002D1094B00221A60044B13221A6000E001
:10124C0000BF00BF80BD00BF5C0000206800002014
:10125C0060000020640000200801002080B500AF71
:10126C0000F07AFA00F01EF800F0F2F800F056F8F0
:10127C0000F0A0F8084801F0C3F9084B22221A60CC
:10128C00074B1F221A60FFF757FAFFF7BDFDFFF758
:10129C00A5FCFEF755FFF6E7700000206800002063
:1012AC006C00002080B590B000AF07F11803282225
:1012BC000021184601F05CFD3B1D00221A605A60AB
:1012CC009A60DA601A610223BB610123BB621023AE
:1012DC00FB6200237B6307F11803184600F058FDEE
:1012EC000346002B01D000F011F90F237B60002383
:1012FC00BB600023FB6000233B6100237B613B1D33
:10130C000021184600F0C6FF0346002B01D000F068
:10131C00FDF800BF4037BD4680BD000080B586B0EB
:10132C0000AF07F1080300221A605A609A60DA6075
:10133C003B4600221A605A601D4B4FF080421A60E7
:10134C001B4B41F63F725A60194B00229A60184BA6
:10135C000922DA60164B00221A61154B00229A61A1
:10136C00134801F0FDF80346002B01D000F0CEF835
:10137C004FF48053BB6007F1080319460C4801F089
:10138C0093FA0346002B01D000F0C0F800233B6019
:10139C0000237B603B461946054801F05BFC034685
:1013AC00002B01D000F0B2F800BF1837BD4680BD4D
:1013BC007000002080B586B000AF07F10803002252
:1013CC001A605A609A60DA603B4600221A605A60D2
:1013DC001D4B1E4A1A601C4B41F63F725A601A4B49
:1013EC0000229A60184B0922DA60174B00221A610E
:1013FC00154B00229A61144801F0B2F80346002BF9
:10140C0001D000F083F84FF48053BB6007F1080360
:10141C0019460D4801F048FA0346002B01D000F0A4
:10142C0075F800233B6000237B603B461946064859
:10143C0001F010FC0346002B01D000F067F800BF50
:10144C001837BD4680BD00BFB80000200004004026
:10145C0080B586B000AF07F1080300221A605A600D
:10146C009A60DA601E4B9B691D4A43F0100393612E
:10147C001B4B9B6903F010037B607B68184B9B69CB
:10148C00174A43F004039361154B9B6903F0040363
:10149C003B603B6800224FF4FF71124800F05FFC88
:1014AC004FF46043BB600023FB6001233B6107F1F9
:1014BC00080319460C4800F0BFFA4FF4FF73BB60E9
:1014CC000123FB6000233B6102237B6107F10803CE
:1014DC001946044800F0B0FA00BF1837BD4680BD6D
:1014EC0000100240000801400010014080B582B09D
:1014FC0000AF786000F038F8FEF78EFEFEF7DCFEE9
:10150C00FEF732FF00BF0837BD4680BD80B400AF88
:10151C0072B600BFFEE7000080B483B000AF786005
:10152C00054A7B681360054B00221A6000BF0C371C
:10153C00BD4680BC704700BF0001002008010020A0
:10154C0080B483B000AF7860054A7B681360054BAC
:10155C0000221A6000BF0C37BD4680BC704700BF2C
:10156C00040100200C01002080B400AF114B1B685B
:10157C00002B0BDD0F4B1B68013B0E4A13600D4B10
:10158C001B68002B02DC0C4B01221A600B4B1B68F6
:10159C00002B0BDD094B1B68013B084A1360074B02
:1015AC001B68002B02DC064B01221A6000BFBD46F3
:1015BC0080BC7047000100200801002004010020BD
:1015CC000C01002080B483B000AF0E4B9B690D4A18
:1015DC0043F0010393610B4B9B6903F001037B60A8
:1015EC007B68084BDB69074A43F08053D361054B9A
:1015FC00DB6903F080533B603B6800BF0C37BD4692
:10160C0080BC70470010024080B584B000AF786099
:10161C007B681B68B3F1804F14D1194BDB69184AF6
:10162C0043F00103D361164BDB6903F00103FB604C
:10163C00FB68002200211C2000F0C7F91C2000F0E0
:10164C00E0F918E07B681B680E4A934213D10C4BEF
:10165C00DB690B4A43F00203D361094BDB6903F0EE
:10166C000203BB60BB68002200211D2000F0ADF915
:10167C001D2000F0C6F900BF1037BD4680BD00BF6D
:10168C00001002400004004080B400AFFEE780B4BC
:10169C0000AFFEE780B400AFFEE780B400AFFEE71A
:1016AC0080B400AFFEE780B400AF00BFBD4680BC85
:1016BC00704780B400AF00BFBD4680BC704780B49B
:1016CC0000AF00BFBD4680BC704780B500AF00F0D6
:1016DC0089F800BF80BD000080B500AF024800F063
:1016EC00DBFF00BF80BD00BF7000002080B500AFE5
:1016FC00024800F0D1FF00BF80BD00BFB800002041
:10170C0080B400AF00BFBD4680BC70470C480D498B
:10171C000D4A002302E0D458C4500433C4188C4240
:10172C00F9D30A4A0A4C002301E013600432A242A6
:10173C00FBD3FFF7E5FF01F0F7FAFFF78FFD7047DA
:10174C000000002040000020CC2D000840000020AC
:10175C0014010020FEE7000080B500AF084B1B68A9
:10176C00074A43F010031360032000F023F90F2005
:10177C0000F008F8FFF726FF0023184680BD00BFD5
:10178C000020024080B582B000AF7860124B1A681E
:10179C00124B1B7819464FF47A73B3FBF1F3B2FB7F
:1017AC00F3F3184600F03BF90346002B01D001235C
:1017BC000EE07B680F2B0AD8002279684FF0FF30BF
:1017CC0000F003F9064A7B681360002300E0012354
:1017DC0018460837BD4680BD340000203C00002070
:1017EC003800002080B400AF054B1B781A46054B1F
:1017FC001B681344034A136000BFBD4680BC70478E
:10180C003C0000201001002080B400AF024B1B688C
:10181C001846BD4680BC70471001002080B485B0CE
:10182C0000AF78607B6803F00703FB600C4BDB6850
:10183C00BB60BA684FF6FF031340BB60FB681A022B
:10184C00BB68134343F0BF6343F40033BB60044AEB
:10185C00BB68D36000BF1437BD4680BC704700BF67
:10186C0000ED00E080B400AF044BDB681B0A03F012
:10187C0007031846BD4680BC704700BF00ED00E072
:10188C0080B483B000AF0346FB7197F90730002B8F
:10189C000BDBFB7903F01F02064997F907305B0954
:1018AC00012000FA02F241F8232000BF0C37BD469C
:1018BC0080BC704700E100E080B483B000AF034609
:1018CC003960FB7197F90730002B0ADB3B68DAB201
:1018DC000C4997F907301201D2B20B4483F800235C
:1018EC000AE03B68DAB20849FB7903F00F03043BCA
:1018FC001201D2B20B441A7600BF0C37BD4680BC25
:10190C00704700BF00E100E000ED00E080B489B05A
:10191C0000AFF860B9607A60FB6803F00703FB6105
:10192C00FB69C3F10703042B28BF0423BB61FB69CC
:10193C000433062B02D9FB69033B00E000237B61D7
:10194C004FF0FF32BB6902FA03F3DA43BB681A406B
:10195C007B699A404FF0FF317B6901FA03F3D9435D
:10196C007B680B40134318462437BD4680BC704738
:10197C0080B582B000AF78607B68013BB3F1807FAB
:10198C0001D301230FE00A4A7B68013B53600F210E
:10199C004FF0FF30FFF790FF054B00229A60044B8D
:1019AC0007221A60002318460837BD4680BD00BFC9
:1019BC0010E000E080B582B000AF78607868FFF787
:1019CC002DFF00BF0837BD4680BD80B586B000AF87
:1019DC000346B9607A60FB7300237B61FFF742FF1B
:1019EC0078617A68B9687869FFF790FF024697F9D1
:1019FC000F3011461846FFF75FFF00BF1837BD4682
:101A0C0080BD80B582B000AF0346FB7197F90730FB
:101A1C001846FFF735FF00BF0837BD4680BD80B5BF
:101A2C0082B000AF78607868FFF7A2FF03461846D3
:101A3C000837BD4680BD000080B48BB000AF786025
:101A4C00396000237B6200233B6261E101227B6AE7
:101A5C0002FA03F3FB613B681B68FA691340BB6134
:101A6C00BA69FB699A4240F050813B685B68974ABF
:101A7C0093425ED0954A934275D8954A934258D07A
:101A8C00934A93426FD8934A934252D0914A9342CD
:101A9C0069D8914A93424CD08F4A934263D88F4A6B
:101AAC00934246D08D4A93425DD8122B2AD8122BE2
:101ABC0059D801A252F823F03F1B0008191B00084B
:101ACC002B1B00086D1B0008731B0008731B000800
:101ADC00731B0008731B0008731B0008731B0008A2
:101AEC00731B0008731B0008731B0008731B000892
:101AFC00731B0008731B0008731B0008211B0008D4
:101B0C00351B0008764A934213D02CE03B68DB6807
:101B1C003B6229E03B68DB6804333B6224E03B68B2
:101B2C00DB6808333B621FE03B68DB680C333B62CD
:101B3C001AE03B689B68002B02D104233B6213E044
:101B4C003B689B68012B05D108233B627B68FA69D3
:101B5C001A6109E008233B627B68FA695A6103E069
:101B6C0000233B6200E000BFBB69FF2B01D87B6800
:101B7C0001E07B6804337B61BB69FF2B02D87B6A75
:101B8C009B0002E07B6A083B9B003B617B691A6807
:101B9C000F213B6901FA03F3DB431A40396A3B69B5
:101BAC0001FA03F31A437B691A603B685B6803F024
:101BBC008053002B00F0A9804A4B9B69494A43F0A3
:101BCC0001039361474B9B6903F00103BB60BB6846
:101BDC00454A7B6A9B08023352F82330FB607B6AD0
:101BEC0003F003039B000F2202FA03F3DB43FA68B2
:101BFC001340FB607B683D4A93420DD07B683C4AA6
:101C0C00934207D07B683B4A934201D1022304E004
:101C1C00032302E0012300E000237A6A02F00302AE
:101C2C0092009340FA681343FB602F497B6A9B0830
:101C3C000233FA6841F823203B685B6803F4803375
:101C4C00002B06D02C4B1A682B49BB6913430B6035
:101C5C0006E0294B1A68BB69DB43274913400B602C
:101C6C003B685B6803F40033002B06D0224B5A68A8
:101C7C002149BB6913434B6006E01F4B5A68BB6993
:101C8C00DB431D4913404B603B685B6803F48013D6
:101C9C00002B06D0184B9A681749BB6913438B600D
:101CAC0006E0154B9A68BB69DB43134913408B6004
:101CBC003B685B6803F40013002B1FD00E4BDA68F3
:101CCC000D49BB691343CB601FE000BF000032100D
:101CDC000000311000002210000021100000121032
:101CEC0000001110001002400000014000080140EB
:101CFC00000C014000100140000401400B4BDA685D
:101D0C00BB69DB4309491340CB607B6A01337B62BF
:101D1C003B681A687B6A22FA03F3002B7FF496AEB9
:101D2C0000BF00BF2C37BD4680BC7047000401408B
:101D3C0080B485B000AF78600B467B807B689A6876
:101D4C007B881340002B02D00123FB7301E000239E
:101D5C00FB73FB7B18461437BD4680BC704780B4C0
:101D6C0083B000AF78600B467B8013467B707B782A
:101D7C00002B03D07A887B681A6103E07B881A04F5
:101D8C007B681A6100BF0C37BD4680BC70470000F1
:101D9C0080B586B000AF78607B68002B01D1012341
:101DAC0072E27B681B6803F00103002B00F0878054
:101DBC00924B5B6803F00C03042B0CD08F4B5B68CD
:101DCC0003F00C03082B12D18C4B5B6803F48033AB
:101DDC00B3F5803F0BD1894B1B6803F40033002B08
:101DEC006CD07B685B68002B68D101234CE27B686C
:101DFC005B68B3F5803F06D1804B1B687F4A43F488
:101E0C00803313602EE07B685B68002B0CD17B4B1E
:101E1C001B687A4A23F480331360784B1B68774A2B
:101E2C0023F4802313601DE07B685B68B3F5A02F5F
:101E3C000CD1724B1B68714A43F4802313606F4BB7
:101E4C001B686E4A43F4803313600BE06B4B1B68CA
:101E5C006A4A23F480331360684B1B68674A23F487
:101E6C00802313607B685B68002B13D0FFF7CCFCDE
:101E7C00386108E0FFF7C8FC02463B69D31A642BB3
:101E8C0001D9032300E25D4B1B6803F40033002BE4
:101E9C00F0D014E0FFF7B8FC386108E0FFF7B4FCB1
:101EAC0002463B69D31A642B01D90323ECE1534B53
:101EBC001B6803F40033002BF0D100E000BF7B68FB
:101ECC001B6803F00203002B63D04C4B5B6803F0E0
:101EDC000C03002B0BD0494B5B6803F00C03082B55
:101EEC001CD1464B5B6803F48033002B16D1434B5B
:101EFC001B6803F00203002B05D07B681B69012BC8
:101F0C0001D00123C0E13D4B1B6823F0F8027B6834
:101F1C005B69DB00394913430B603AE07B681B6952
:101F2C00002B20D0364B01221A60FFF76DFC386174
:101F3C0008E0FFF769FC02463B69D31A022B01D972
:101F4C000323A1E12D4B1B6803F00203002BF0D0FF
:101F5C002A4B1B6823F0F8027B685B69DB0027497E
:101F6C0013430B6015E0264B00221A60FFF74CFC64
:101F7C00386108E0FFF748FC02463B69D31A022B94
:101F8C0001D9032380E11D4B1B6803F00203002BD6
:101F9C00F0D17B681B6803F00803002B3AD07B68F8
:101FAC009B69002B19D0174B01221A60FFF72CFCF0
:101FBC00386108E0FFF728FC02463B69D31A022B74
:101FCC0001D9032360E10D4B5B6A03F00203002B84
:101FDC00F0D0012000F0A6FA1CE00A4B00221A6097
:101FEC00FFF712FC38610FE0FFF70EFC02463B696D
:101FFC00D31A022B08D9032346E100BF001002407C
:10200C000000424280044242924B5B6A03F002039E
:10201C00002BE9D17B681B6803F00403002B00F054
:10202C00A6800023FB758B4BDB6903F08053002BE0
:10203C000DD1884BDB69874A43F08053D361854BC4
:10204C00DB6903F08053BB60BB680123FB75824BDB
:10205C001B6803F48073002B18D17F4B1B687E4ADE
:10206C0043F480731360FFF7CFFB386108E0FFF790
:10207C00CBFB02463B69D31A642B01D9032303E142
:10208C00754B1B6803F48073002BF0D07B68DB6806
:10209C00012B06D16F4B1B6A6E4A43F0010313628E
:1020AC002DE07B68DB68002B0CD16A4B1B6A694AFC
:1020BC0023F001031362674B1B6A664A23F0040387
:1020CC0013621CE07B68DB68052B0CD1614B1B6A2F
:1020DC00604A43F0040313625E4B1B6A5D4A43F093
:1020EC00010313620BE05B4B1B6A5A4A23F001039A
:1020FC001362584B1B6A574A23F0040313627B6824
:10210C00DB68002B15D0FFF77FFB38610AE0FFF787
:10211C007BFB02463B69D31A41F28832934201D9C8
:10212C000323B1E04B4B1B6A03F00203002BEED0F0
:10213C0014E0FFF769FB38610AE0FFF765FB024624
:10214C003B69D31A41F28832934201D903239BE0B5
:10215C00404B1B6A03F00203002BEED1FB7D012BDD
:10216C0005D13C4BDB693B4A23F08053D3617B6840
:10217C00DB69002B00F08780364B5B6803F00C03A7
:10218C00082B61D07B68DB69022B46D1334B0022D4
:10219C001A60FFF739FB386108E0FFF735FB0246A0
:1021AC003B69D31A022B01D903236DE0294B1B6821
:1021BC0003F00073002BF0D17B681B6AB3F5803FF2
:1021CC0008D1244B5B6823F400327B689B6821495F
:1021DC0013434B601F4B5B6823F474127B68196AC2
:1021EC007B685B6A0B431B4913434B601B4B0122FF
:1021FC001A60FFF709FB386108E0FFF705FB0246A0
:10220C003B69D31A022B01D903233DE0114B1B6808
:10221C0003F00073002BF0D035E0104B00221A6055
:10222C00FFF7F2FA386108E0FFF7EEFA02463B6975
:10223C00D31A022B01D9032326E0064B1B6803F0AB
:10224C000073002BF0D11EE07B68DB69012B07D1FA
:10225C00012319E00010024000700040600042426F
:10226C000B4B5B68FB60FB6803F480327B681B6A7A
:10227C009A4206D1FB6803F470127B685B6A9A423F
:10228C0001D0012300E0002318461837BD4680BD5D
:10229C000010024080B584B000AF786039607B6874
:1022AC00002B01D10123D0E06A4B1B6803F007031C
:1022BC003A689A4210D9674B1B6823F007026549AC
:1022CC003B6813430B60634B1B6803F007033A68CE
:1022DC009A4201D00123B8E07B681B6803F002032B
:1022EC00002B20D07B681B6803F00403002B05D067
:1022FC00594B5B68584A43F4E06353607B681B6836
:10230C0003F00803002B05D0534B5B68524A43F48F
:10231C0060535360504B5B6823F0F0027B689B6802
:10232C004D4913434B607B681B6803F00103002B82
:10233C0040D07B685B68012B07D1474B1B6803F4CB
:10234C000033002B15D101237FE07B685B68022BE7
:10235C0007D1414B1B6803F00073002B09D10123FB
:10236C0073E03D4B1B6803F00203002B01D10123EA
:10237C006BE0394B5B6823F003027B685B68364982
:10238C0013434B60FFF740FAF8600AE0FFF73CFAA2
:10239C000246FB68D31A41F28832934201D90323D7
:1023AC0053E02D4B5B6803F00C027B685B689B0071
:1023BC009A42EBD1274B1B6803F007033A689A4209
:1023CC0010D2244B1B6823F0070222493B681343AD
:1023DC000B60204B1B6803F007033A689A4201D04C
:1023EC00012332E07B681B6803F00403002B08D048
:1023FC00194B5B6823F4E0627B68DB681649134376
:10240C004B607B681B6803F00803002B09D0124B50
:10241C005B6823F460527B681B69DB000E49134335
:10242C004B6000F021F802460B4B5B681B0903F074
:10243C000F030A49CB5C22FA03F3094A1360094BD8
:10244C001B681846FFF79EF9002318461037BD4647
:10245C0080BD00BF0020024000100240B42D0008D7
:10246C00340000203800002090B48AB000AF294B13
:10247C003C1D0FCB84E80F0040F201233B8000236E
:10248C00FB610023BB6100237B6200237B61002383
:10249C003B62214B5B68FB61FB6903F00C03042B73
:1024AC0002D0082B03D02BE01C4B3B622BE0FB69CA
:1024BC009B0C03F00F0328333B4413F8243C7B6143
:1024CC00FB6903F48033002B12D0134B5B685B0C5D
:1024DC0003F0010328333B4413F8283CBB617B69B0
:1024EC000E4A03FB02F2BB69B2FBF3F37B6204E01E
:1024FC007B690B4A02FB03F37B627B6A3B6202E063
:10250C00064B3B6200BF3B6A18462837BD4690BC61
:10251C00704700BFA42D00080010024000127A0082
:10252C0000093D0080B485B000AF78600A4B1B6891
:10253C000A4AA2FB03235B0A7A6802FB03F3FB60E3
:10254C0000BFFB685A1EFA60002BF9D100BF00BF18
:10255C001437BD4680BC704734000020D34D621048
:10256C0080B582B000AF78607B68002B01D101236D
:10257C0041E07B6893F83D30DBB2002B06D17B68E1
:10258C00002283F83C207868FFF73EF87B68022233
:10259C0083F83D207B681A687B6804331946104623
:1025AC0000F06AFA7B68012283F846207B680122DE
:1025BC0083F83E207B68012283F83F207B68012250
:1025CC0083F840207B68012283F841207B6801223C
:1025DC0083F842207B68012283F843207B68012228
:1025EC0083F844207B68012283F845207B68012214
:1025FC0083F83D20002318460837BD4680BD0000F7
:10260C0080B485B000AF78607B6893F83D30DBB266
:10261C00012B01D0012335E07B68022283F83D2099
:10262C007B681B68DA687B681B6842F00102DA6021
:10263C007B681B68164A934209D07B681B68B3F110
:10264C00804F04D07B681B68124A934211D17B687F
:10265C001B689B6803F00703FB60FB68062B10D01C
:10266C007B681B681A687B681B6842F001021A6061
:10267C0007E07B681B681A687B681B6842F00102E4
:10268C001A60002318461437BD4680BC704700BF43
:10269C00002C01400004004080B582B000AF78608F
:1026AC007B681B681B6903F00203022B22D17B6839
:1026BC001B68DB6803F00203022B1BD17B681B68D1
:1026CC006FF002021A617B6801221A777B681B6823
:1026DC009B6903F00303002B03D0786800F0B1F979
:1026EC0005E0786800F0A4F9786800F0B3F97B682D
:1026FC0000221A777B681B681B6903F00403042B08
:10270C0022D17B681B68DB6803F00403042B1BD10C
:10271C007B681B686FF004021A617B6802221A77CF
:10272C007B681B689B6903F44073002B03D07868AB
:10273C0000F087F905E0786800F07AF9786800F025
:10274C0089F97B6800221A777B681B681B6903F088
:10275C000803082B22D17B681B68DB6803F0080395
:10276C00082B1BD17B681B686FF008021A617B6811
:10277C0004221A777B681B68DB6903F00303002BC8
:10278C0003D0786800F05DF905E0786800F050F946
:10279C00786800F05FF97B6800221A777B681B6809
:1027AC001B6903F01003102B22D17B681B68DB68BC
:1027BC0003F01003102B1BD17B681B686FF0100209
:1027CC001A617B6808221A777B681B68DB6903F443
:1027DC004073002B03D0786800F033F905E078687B
:1027EC0000F026F9786800F035F97B6800221A773A
:1027FC007B681B681B6903F00103012B0ED17B68FE
:10280C001B68DB6803F00103012B07D17B681B6895
:10281C006FF001021A617868FEF768FE7B681B682E
:10282C001B6903F08003802B0ED17B681B68DB686F
:10283C0003F08003802B07D17B681B686FF080024C
:10284C001A61786800F067FA7B681B681B6903F0F3
:10285C004003402B0ED17B681B68DB6803F0400300
:10286C00402B07D17B681B686FF040021A617868B7
:10287C0000F0F9F87B681B681B6903F02003202B20
:10288C000ED17B681B68DB6803F02003202B07D17B
:10289C007B681B686FF020021A61786800F032FACE
:1028AC0000BF0837BD4680BD80B584B000AF7860EE
:1028BC0039607B6893F83C30012B01D10223B3E0E3
:1028CC007B68012283F83C207B68022283F83D2040
:1028DC007B681B689B68FB60FB6823F07703FB60DD
:1028EC00FB6823F47F43FB607B681B68FA689A6083
:1028FC003B681B68B3F5005F3ED0B3F5005F00F298
:10290C008780B3F5805F00F08580B3F5805F7FD85A
:10291C00702B1AD0702B7BD8602B50D0602B77D8B3
:10292C00502B3CD0502B73D8402B58D0402B6FD809
:10293C00302B64D0302B6BD8202B60D0202B67D859
:10294C00002B5CD0102B5AD062E07B6818683B6877
:10295C0099683B685A683B68DB6800F05CF97B68F7
:10296C001B689B68FB60FB6843F07703FB607B682C
:10297C001B68FA689A604EE07B6818683B68996837
:10298C003B685A683B68DB6800F045F97B681B685C
:10299C009A687B681B6842F480429A603BE07B68D3
:1029AC0018683B6859683B68DB681A4600F0BCF84D
:1029BC007B681B685021184600F013F92BE07B68EC
:1029CC0018683B6859683B68DB681A4600F0DAF80F
:1029DC007B681B686021184600F003F91BE07B68DC
:1029EC0018683B6859683B68DB681A4600F09CF82D
:1029FC007B681B684021184600F0F3F80BE07B68FD
:102A0C001A683B681B681946104600F0EAF802E0A9
:102A1C0000BF00E000BF7B68012283F83D207B688B
:102A2C00002283F83C20002318461037BD4680BD99
:102A3C0080B483B000AF786000BF0C37BD4680BC5B
:102A4C00704780B483B000AF786000BF0C37BD46D0
:102A5C0080BC704780B483B000AF786000BF0C3787
:102A6C00BD4680BC704780B483B000AF786000BFB7
:102A7C000C37BD4680BC704780B485B000AF786021
:102A8C0039607B681B68FB607B68254A934207D0E2
:102A9C007B68B3F1804F03D07B68224A934208D104
:102AAC00FB6823F07003FB603B685B68FA681343B8
:102ABC00FB607B681A4A934207D07B68B3F1804F66
:102ACC0003D07B68174A934208D1FB6823F4407308
:102ADC00FB603B68DB68FA681343FB60FB6823F020
:102AEC0080023B685B691343FB607B68FA681A6081
:102AFC003B689A687B68DA623B681A687B689A6202
:102B0C007B68074A934203D13B681A697B681A6356
:102B1C007B6801225A6100BF1437BD4680BC7047E8
:102B2C00002C01400004004080B487B000AFF86076
:102B3C00B9607A60FB681B6A7B61FB681B6A23F0D7
:102B4C000102FB681A62FB689B693B613B6923F0DD
:102B5C00F0033B617B681B013A6913433B617B6962
:102B6C0023F00A037B617A69BB6813437B61FB68C2
:102B7C003A699A61FB687A691A6200BF1C37BD46D4
:102B8C0080BC704780B487B000AFF860B9607A60E1
:102B9C00FB681B6A23F01002FB681A62FB689B69D6
:102BAC007B61FB681B6A3B617B6923F470437B612F
:102BBC007B681B037A6913437B613B6923F0A00399
:102BCC003B61BB681B013A6913433B61FB687A6943
:102BDC009A61FB683A691A6200BF1C37BD4680BC1B
:102BEC00704780B485B000AF786039607B689B68B3
:102BFC00FB60FB6823F07003FB603A68FB681343CF
:102C0C0043F00703FB607B68FA689A6000BF1437D7
:102C1C00BD4680BC704780B487B000AFF860B96027
:102C2C007A603B60FB689B687B617B6923F47F4324
:102C3C007B613B681A027B681A43BB6813437A6951
:102C4C0013437B61FB687A699A6000BF1C37BD46F1
:102C5C0080BC704780B485B000AF786039607B6809
:102C6C0093F83C30012B01D1022341E07B68012217
:102C7C0083F83C207B68022283F83D207B681B682C
:102C8C005B68FB607B681B689B68BB60FB6823F020
:102C9C007003FB603B681B68FA681343FB607B683E
:102CAC001B68FA685A607B681B68144A934209D007
:102CBC007B681B68B3F1804F04D07B681B68104A9B
:102CCC0093420CD1BB6823F08003BB603B685B680C
:102CDC00BA681343BB607B681B68BA689A607B68F0
:102CEC00012283F83D207B68002283F83C200023DE
:102CFC0018461437BD4680BC704700BF002C0140FD
:102D0C000004004080B483B000AF786000BF0C3783
:102D1C00BD4680BC704780B483B000AF786000BF04
:102D2C000C37BD4680BC704770B500260C4D0D4C61
:102D3C00641BA410A64209D100F022F800260A4D0B
:102D4C000A4C641BA410A64205D170BD55F8043B77
:102D5C0098470136EEE755F8043B98470136F2E701
:102D6C00C42D0008C42D0008C42D0008C82D00086F
:102D7C0003460244934200D1704703F8011BF9E764
:102D8C00F8B500BFF8BC08BC9E467047F8B500BF4C
:082D9C00F8BC08BC9E4670471C
:102DA40002030405060708090A0B0C0D0E0F101088
:102DB40000000000000000000102030406070809E7
:042DC40031010008D1
:042DC8000D010008F1
:102DCC0001000000010000000100000001000000F3
:102DDC0001000000010000000100000001000000E3
:102DEC0001000000010000000100000001000000D3
:102DFC00C80000000024F4001000000001000000D6
:0400000508001719BF
:00000001FF
